:100000000C9462000C948A000C948A000C948A0070
:100010000C948A000C948A000C948A000C94BF0300
:100020000C948A000C948A000C948A000C948A0028
:100030000C948A000C948A000C948A000C948A0018
:100040000C9475030C948A000C9443030C941D03C8
:100050000C948A000C948A000C948A000C948A00F8
:100060000C948A000C948A000000000023002600F3
:10007000290000000008000201000003040700003E
:1000800000000000000000000000250028002B00F8
:1000900000000000240027002A00040404040404D3
:1000A0000404020202020202030303030303010227
:1000B00004081020408001020408102001020408F6
:1000C00010209C0411241FBECFEFD8E0DEBFCDBFAF
:1000D00011E0A0E0B1E0E4E8FEE102C005900D927D
:1000E000AC33B107D9F722E0ACE3B1E001C01D9217
:1000F000A43CB207E1F710E0C2E6D0E004C02197CB
:10010000FE010E942B0FC136D107C9F70E94CE0411
:100110000C94400F0C940000AF92BF92CF92DF92EC
:10012000EF92FF920F931F93CF93DF936C017B01AC
:100130008B01040F151FEB015E01AE18BF08C0173D
:10014000D10759F06991D601ED91FC910190F081B0
:10015000E02DC6010995892B79F7C501DF91CF9173
:100160001F910F91FF90EF90DF90CF90BF90AF90D5
:100170000895FC01538D448D252F30E0842F90E0AD
:10018000821B930B541710F0CF9608950197089592
:10019000FC01918D828D981761F0A28DAE0FBF2F5B
:1001A000B11D5D968C91928D9F5F9F73928F90E0B1
:1001B00008958FEF9FEF0895FC01918D828D981720
:1001C00031F0828DE80FF11D858D90E008958FEF5D
:1001D0009FEF0895FC01918D228D892F90E0805C26
:1001E0009F4F821B91098F739927089585E591E0B0
:1001F0000E94EA0021E0892B09F420E0822F089573
:1002000080E090E0892B29F00E94F60081110C9487
:1002100000000895FC01A48DA80FB92FB11DA35AA9
:10022000BF4F2C91848D90E001968F739927848F16
:10023000A689B7892C93A089B1898C918370806439
:100240008C93938D848D981306C00288F389E02DDA
:1002500080818F7D80830895EF92FF920F931F938B
:10026000CF93DF93EC0181E0888F9B8D8C8D981369
:100270001AC0E889F989808185FF15C09FB7F89475
:10028000EE89FF896083E889F989808183708064C1
:1002900080839FBF81E090E0DF91CF911F910F910C
:1002A000FF90EF900895F62E0B8D10E00F5F1F4F1B
:1002B0000F731127E02E8C8D8E110CC00FB607FC2A
:1002C000FACFE889F989808185FFF5CFCE010E94B8
:1002D0000A01F1CFEB8DEC0FFD2FF11DE35AFF4F1B
:1002E000F0829FB7F8940B8FEA89FB898081806246
:1002F000CFCFCF93DF93EC01888D8823B9F0AA8903
:10030000BB89E889F9898C9185FD03C0808186FDD0
:100310000DC00FB607FCF7CF8C9185FFF2CF80811F
:1003200085FFEDCFCE010E940A01E9CFDF91CF9189
:100330000895833081F028F4813099F08230A9F05B
:1003400008958730A9F08830C9F08430B1F48091E5
:1003500080008F7D03C0809180008F778093800024
:10036000089584B58F7784BD089584B58F7DFBCFC4
:100370008091B0008F778093B00008958091B00095
:100380008F7DF9CF1F93CF93DF93282F30E0F901B2
:10039000EE58FF4F8491F901E255FF4FD491F901D6
:1003A000E656FF4FC491CC23A9F0162F81110E946D
:1003B0009901EC2FF0E0EE0FFF1FEA57FF4FA591D8
:1003C000B4918FB7F894EC91111108C0D095DE2349
:1003D000DC938FBFDF91CF911F910895DE2BF8CF73
:1003E0003FB7F8948091410190914201A09143015F
:1003F000B091440126B5A89B05C02F3F19F0019686
:10040000A11DB11D3FBFBA2FA92F982F8827BC016E
:10041000CD01620F711D811D911D42E0660F771F96
:10042000881F991F4A95D1F70895CF92DF92EF92D6
:10043000FF92CF93DF93EC01072E000C880B990BF2
:100440000E949B0D6B017C0120E030E040E45FE303
:100450000E944B0E20E030E048E452E40E94F10C90
:100460000E94630DC617D707D4F020E030E040EAC1
:100470005FE3C701B6010E944B0E20E030E048E484
:1004800052E40E94F10C20E030E040E85FE30E947B
:10049000800C0E94630D21E06C177D070CF420E0B6
:1004A000822F90E0DF91CF91FF90EF90DF90CF907F
:1004B00008958F929F92AF92BF92CF92DF92EF9268
:1004C000FF920F931F93CF93DF93FC012081318123
:1004D000E0915101F091520101E010E02E173F0729
:1004E0000CF045C0D901AA0FBB1FE0914F01F0915C
:1004F0005001EA0FFB1FA080B18089010095109583
:100500000170112720FD27C02CE93FEFEA016B01A4
:100510007C014901840E951EB401C5010E9415029B
:1005200021E030E0892BD1F48C0E9D1EB401C50171
:100530000E94150222E030E0892B81F4BE01680D93
:10054000791DC5010E94150223E030E0892B31F4AA
:100550000FEF1FEF0CC024E630E0D8CFF60180810A
:10056000918101968217930784F491838083C80157
:10057000DF91CF911F910F91FF90EF90DF90CF907F
:10058000BF90AF909F908F90089511821082F701D5
:10059000808191810196E9CFFC0101900020E9F76B
:1005A0003197AF01481B590BBC0185E591E00C94D4
:1005B0008C008F929F92AF92BF920F931F93CF9315
:1005C000DF93CDB7DEB7A1970FB6F894DEBF0FBEAD
:1005D000CDBF19A2423008F44AE08E010F5D1F4FD3
:1005E000842E912CB12CA12CA50194010E94C80E3F
:1005F000E62FB901CA01EA30F4F4E05DD801EE93C8
:100600008D01232B242B252B79F790E080E0109788
:1006100019F0CD010E94CC02A1960FB6F894DEBF6E
:100620000FBECDBFDF91CF911F910F91BF90AF90C3
:100630009F908F900895E95CE1CF1F920F920FB6C3
:100640000F9211242F933F934F935F936F937F9358
:100650008F939F93AF93BF93EF93FF9385E591E0C3
:100660000E940A01FF91EF91BF91AF919F918F91ED
:100670007F916F915F914F913F912F910F900FBE9E
:100680000F901F9018951F920F920FB60F92112482
:100690002F938F939F93EF93FF93E0916501F091D8
:1006A00066018081E0916B01F0916C0182FD1BC0BD
:1006B000908180916E018F5F8F7320916F018217FF
:1006C00041F0E0916E01F0E0EB5AFE4F958F809380
:1006D0006E01FF91EF919F918F912F910F900FBE1F
:1006E0000F901F9018958081F4CF1F920F920FB634
:1006F0000F9211242F933F938F939F93AF93BF93A8
:1007000080913D0190913E01A0913F01B091400147
:1007100030913C0123E0230F2D3758F50196A11DA0
:10072000B11D20933C0180933D0190933E01A09325
:100730003F01B09340018091410190914201A0910D
:100740004301B09144010196A11DB11D8093410167
:1007500090934201A0934301B0934401BF91AF91A4
:100760009F918F913F912F910F900FBE0F901F90EF
:10077000189526E8230F0296A11DB11DD2CF1F9216
:100780000F920FB60F9211242F933F934F935F93C5
:100790006F937F938F939F93AF93BF93CF93DF9389
:1007A000EF93FF932091F30130E0F901EE58FF4FF2
:1007B0008491F901E255FF4FD491F901E656FF4FBC
:1007C000C491CC2379F081110E949901EC2FF0E0C3
:1007D000EE0FFF1FE859FF4FA591B491EC91ED2367
:1007E00081E009F480E02091F7013091F8012F5F5A
:1007F0003F4F3093F8012093F7019091F601953621
:1008000018F096E09093F2019091F201943009F47F
:1008100066C0B8F49230F1F0933009F444C090917E
:10082000F501992309F46BC081117CC08091F4011A
:10083000882309F463C08091F40161E00E94C20141
:100840005EC0953009F457C0963049F791E0909317
:10085000C3024FC08111E3CF2091F7013091F8011D
:100860002436310528F41092F8011092F701D7CF01
:100870001092C3021092F601E091F60191E09E0FF2
:100880009093F601F0E02091F7013091F801EE0F1E
:10089000FF1FEE50FE4F308727831092F801109211
:1008A000F70193E019C0813009F0B9CFE091F6016A
:1008B00091E09E0F9093F601F0E02091F7013091C6
:1008C000F801EE0FFF1FEE50FE4F30872783109286
:1008D000F8011092F70194E09093F201A0CF8823E1
:1008E00059F22091F7013091F8012536310508F4CD
:1008F00096CF95E0F1CF811192CFB5CF2D9AFF9190
:10090000EF91DF91CF91BF91AF919F918F917F91A7
:100910006F915F914F913F912F910F900FBE0F906C
:100920001F9018958091F401882321F08091F401A3
:1009300060E084CF2D98E3CFE5E5F1E013821282E9
:1009400088EE93E0A0E0B0E084839583A683B7832C
:1009500084E091E09183808385EC90E095878487A3
:1009600084EC90E09787868780EC90E0918B808B79
:1009700081EC90E0938B828B82EC90E0958B848B62
:1009800086EC90E0978B868B118E128E138E148ED0
:10099000E2EFF1E082E0818313820895CF93DF9349
:1009A000CDB7DEB72C970FB6F894DEBF0FBECDBF24
:1009B000789484B5826084BD84B5816084BD85B53A
:1009C000826085BD85B5816085BD80916E00816046
:1009D00080936E00109281008091810082608093EC
:1009E00081008091810081608093810080918000EE
:1009F0008160809380008091B10084608093B10019
:100A00008091B00081608093B00080917A00846012
:100A100080937A0080917A00826080937A0080913E
:100A20007A00816080937A0080917A008068809358
:100A30007A001092C100E0916501F091660112E028
:100A40001083E0916101F09162011082E0916301F5
:100A5000F09164018FEC808310926D01E091690147
:100A6000F0916A0186E08083E0916701F09168016E
:100A7000808180618083E0916701F09168018081CD
:100A800088608083E0916701F091680180818068CF
:100A90008083E0916701F091680180818F7D808380
:100AA00082E191E00E94CC0282E291E00E94CC02BD
:100AB000F8941093B0001093B10084E68093B300D3
:100AC0001092B2001093700078941093F20110927B
:100AD000F6018091F30190E0FC01E255FF4F249173
:100AE00086569F4FFC0184918823C9F090E0880FBF
:100AF000991FFC01E057FF4F45915491FC01EA57C3
:100B0000FF4FA591B4919FB7F894FA018081209589
:100B1000822380838C91E22FE823EC939FBF4424AF
:100B20004A94542C3201A0E22A2E312C89EF91E014
:100B30009093500180934F018091F60190E0909343
:100B40005201809351018091C30290E0909354012F
:100B5000809353018091F201853009F0DBC38091CD
:100B6000FB019091FC01885891098D35910508F0A1
:100B700051C08091F601843009F58091FD0190917A
:100B8000FE0180974797D0F48091FF019091000279
:100B90000997099798F410924E0110924D014092D6
:100BA000490150924A0160924B0170924C0183E0DE
:100BB00090E090934601809345015FC38091F601D8
:100BC000843440F18091FD019091FE01825491099D
:100BD0008E9700F590E080E040E050E0BA01FC0123
:100BE000E150FE4F208131812950310929303105F2
:100BF00088F4FC01EF5FFD4F2081318127513109DD
:100C00002231310510F12081318126503109273000
:100C1000310588F18091F6018A3108F461C0809134
:100C2000F9019091FA01843F914050F510924E01E4
:100C300010924D014092490150924A0160924B013D
:100C400070924C018BE090E0B4CF440F551F661FAB
:100C5000771F416004968038910509F630924E0165
:100C600020924D014093490150934A0160934B01FA
:100C700070934C019CCF440F551F661F771FEACF1E
:100C80008091FB019091FC0185974B9748F5E2EF2D
:100C9000F1E082E090E0C12CD12C76019C012F5F25
:100CA0003F4F4091F6014217130609F00CF4FAC0C9
:100CB00043855485475051094730510508F0F1C02C
:100CC00025853685235131092F30310508F4DBC0E5
:100CD000258536852A5031092930310508F4DCC0D4
:100CE0008091F6018A3108F43FC08091F90190911A
:100CF000FA018032934008F499CF8091FB019091E2
:100D0000FC01C697869780F58091FD019091FE01C8
:100D1000C697869748F5EFEFF1E083E090E0C12CAD
:100D2000D12C76019C012F5F3F4F4091F601421775
:100D3000130609F00CF4DEC0408151814C5051097A
:100D40004B30510508F0D5C022813381255231093D
:100D50002B31310508F4BFC0228133812C50310979
:100D60002A30310508F4C0C08091F601823258F172
:100D70008091FB019091FC010697079720F5EFEF1A
:100D8000F1E082E090E0C12CD12C76019C012F5F34
:100D90003F4F4091F6014217130609F00CF4D7C0FB
:100DA000DF0112974D915C9111974E5151094731D6
:100DB000510508F4B6C04D915C914C5051094B302F
:100DC000510508F4BEC01C821B82E1E0F0E0FA830A
:100DD000E9838091F6018D3008F4EAC049E753E0D9
:100DE000BE016D5F7F4FCE0101960E945902892B93
:100DF00009F0DEC049E753E0BE016D5F7F4FCE01D1
:100E000001960E945902019709F0D2C049E753E0C8
:100E1000BE016D5F7F4FCE0101960E9459028C0189
:100E2000892B09F0C5C0812C912C54012091F60129
:100E300089819A812817190609F00CF4AAC049E79C
:100E400053E0BE016D5F7F4FCE0101960E945902B3
:100E50007C0149E753E0BE016D5F7F4FCE010196F3
:100E60000E945902F1E0EF16F10409F089C0892BC4
:100E700009F09EC0880C991CAA1CBB1C689480F8C1
:100E80000F5F1F4FD3CFCC0CDD1CEE1CFF1C6894F2
:100E9000C0F80296349602CFCC0CDD1CEE1CFF1C71
:100EA000F8CFC90101979595879590934E0180934E
:100EB0004D010C972CF410924E0110924D0110CF61
:100EC000C0924901D0924A01E0924B01F0924C014C
:100ED00084E090E06ECECC0CDD1CEE1CFF1C689410
:100EE000C0F8029634961ECFCC0CDD1CEE1CFF1C05
:100EF000F8CFC90101979595879590934E018093FE
:100F00004D010C972CF410924E0110924D012CCFF4
:100F1000C0924901D0924A01E0924B01F0924C01FB
:100F200091CECC0CDD1CEE1CFF1C6894C0F84081F7
:100F300051813496435051094530510538F4029699
:100F400025CFCC0CDD1CEE1CFF1CF1CFC901019795
:100F50009595879590934E0180934D0140972CF481
:100F600010924E0110924D012ECFC0924901D092A5
:100F70004A01E0924B01F0924C018CE090E019CED6
:100F8000EF28B1F40197A1F4880C991CAA1CBB1C92
:100F900077CF10934E0100934D01809249019092BA
:100FA0004A01A0924B01B0924C0181E090E001CE49
:100FB0001C821B82A1E0B0E0BA83A9838091510119
:100FC00090915201181619060CF07EC0E0914F0165
:100FD000F091500182E090E09A838983828193812D
:100FE00089974E9708F070C083E090E09A838983D8
:100FF000848195810B970A9708F066C04CEB51E00D
:10100000BE016D5F7F4FCE0101960E9459028C0197
:10101000892B09F059C04CEB51E0BE016D5F7F4F49
:10102000CE0101960E945902019709F04DC0812C12
:10103000912C5401209151013091520189819A8162
:10104000821793070CF0E2C04CEB51E0BE016D5FDC
:101050007F4FCE0101960E9459027C010330110599
:1010600039F14CEB51E0BE016D5F7F4FCE0101962F
:101070000E9459026C010330110561F44CEB51E000
:10108000BE016D5F7F4FCE0101960E945902C816C6
:10109000D906D1F4E114F10409F4ABC0EA94EF28C5
:1010A00099F4CD2889F4880C991CAA1CBB1CABC0F0
:1010B0004CEB51E0BE016D5F7F4FCE0101960E9467
:1010C0005902E816F90669F2E0914F01F0915001DA
:1010D00082819381C697869778F5848195814B9715
:1010E000459750F5DF0116967F0126ECE20EF11CC4
:1010F00020E030E040E050E060E070E080E090E030
:101100000D911C9111970950110908301105A0F497
:1011100012960D911C911397015111090D30110573
:1011200008F487C012960D911C9113970450110971
:101130000530110508F420C18091F601893380F152
:1011400082819381895791098335910548F584817E
:101150009581CA97899720F59F012A5F3F4FC12C3F
:10116000D12C760143E050E0D9016D917C9111972B
:101170006A5071096930710598F412966D917C91ED
:101180001397665171096131710508F4F9C012961F
:101190006D917C91665071096730710508F41FC12B
:1011A0008091F601823209F01FC1828193810A97F2
:1011B000099708F019C1A091F601B0E0A150B0481C
:1011C000AA0FBB1FAE0FBF1F8D919C910A97099765
:1011D00008F00AC110924E0110924D01409249014F
:1011E00050924A0160924B0170924C0186E090E06F
:1011F000E0CCCA94CD2809F067CF880C991CAA1CB2
:10120000BB1C689480F80F5F1F4F14CF10934E01E2
:1012100000934D018092490190924A01A0924B01A6
:10122000B0924C01E2E0F0E0F0934601E09345011A
:1012300024C001E00E94F50E21601496AE15BF0592
:1012400009F05ECF2093490130934A0140934B014E
:1012500050934C0100E20E94100F209347013093FD
:10126000480185E090E0909346018093450180E33A
:1012700090E090934E0180934D01809149019091AF
:101280004A01A0914B01B0914C018F3F9F4FAF4F4E
:10129000BF4FD9F185E291E00E94CC02C090450198
:1012A000D09046010D2C000CEE08FF084AE0C70163
:1012B000B601F7FE0DC06DE285E591E00E942C01BC
:1012C00066277727CB016C197D098E099F094AE0B3
:1012D0000E94D90282E391E00E94CC0285E391E072
:1012E0000E94CC026091490170914A0180914B01AA
:1012F00090914C014AE00E94D90282E391E00E9461
:10130000CC0282E291E00E94CC0282E08093F20162
:101310001092F6010E94F0014B015C0184EFC82E8F
:10132000DD24D394E12CF12C0E94F0016819790995
:101330008A099B09683E734081059105A8F321E065
:10134000C21AD108E108F10888EE880E83E0981EE1
:10135000A11CB11CC114D104E104F10429F780E0FF
:1013600090E0892B09F4E2CB0E94F600882309F46F
:10137000DACB0E940000D7CB01E00E94F50E5DCFD2
:10138000D701C601880F991FAA1FBB1F6C017D01E1
:101390006894C0F84E5F5F4F2C5F3F4F4B33510551
:1013A00009F0E2CE9F012A583F4FD9012D913C917F
:1013B0002A5031092930310508F0F2CE2CE130E015
:1013C00030934E0120934D01C0924901D0924A01C1
:1013D000E0924B01F0924C018AE090E0EACBCC0C19
:1013E000DD1CEE1CFF1CD6CF8281938189579109A9
:1013F0008335910560F58091F601813240F1848159
:101400009581CA97899718F59F012A5F3F4FC12C94
:10141000D12C760143E050E0D9016D917C91119778
:101420006A5071096930710590F412966D917C9142
:101430001397665171096131710580F112966D91B2
:101440007C91665071096730710508F454C082813F
:1014500093818C549109C59708F081C08091F60161
:10146000843009F04DC0848195818097479708F0BA
:1014700047C0868197810997099708F041C010926B
:101480004E0110924D014092490150924A016092E2
:101490004B0170924C0187E090E08BCBD701C601E5
:1014A000880F991FAA1FBB1F6C017D016894C0F8AB
:1014B0004E5F5F4F2C5F3F4F4332510509F0ACCF79
:1014C0009F012A5B3F4FD9012D913C912A50310950
:1014D0002930310508F0BBCF20E130E030934E01D8
:1014E00020934D01C0924901D0924A01E0924B01F4
:1014F000F0924C017BCECC0CDD1CEE1CFF1CD8CF37
:101500008091F601843458F1848195818954910940
:10151000C39728F59F012A5F3F4FBF016A577F4F4E
:10152000C12CD12C7601D9014D915C911197495074
:1015300051094930510598F412964D915C911397D9
:10154000465151094131510508F4A2C012964D91FE
:101550005C91465051094730510508F4B6C080915E
:10156000F6018634C0F1828193810C970B9798F530
:10157000848195810997099770F5868197818C9769
:101580004F9748F58085918589974D9720F59F0164
:10159000265F3F4FC12CD12C760145E050E0D901A8
:1015A0006D917C9111976C5071096B30710598F4B5
:1015B00012966D917C9113976E5171096731710587
:1015C00008F488C012966D917C9169507109693058
:1015D000710508F4ACC08091F601883508F4B6C0F6
:1015E00082819381855891098B35910508F0AEC0B1
:1015F00084819581825491098E9708F0A7C08F014C
:10160000045C1F4F8DE190E030E020E04091F60156
:101610004450550B8417950714F5A8014250510901
:10162000DA014D915C91495051094830510508F05B
:101630008DC0BC016F5F7F4FD8014D915C911197B8
:10164000475051094730510508F476C04D915C91DF
:10165000485151094231510508F475C0CB01019739
:101660009595879590934E0180934D018A970CF440
:101670006DC0C901330FAA0BBB0B80934901909336
:101680004A01A0934B01B0934C0189E090E091CACC
:10169000D701C601880F991FAA1FBB1F6C017D01CE
:1016A0006894C0F82C5F3F4F2617370709F03BCFEF
:1016B00030924E0120924D01C0924901D0924A01D0
:1016C000E0924B01F0924C01E6CECC0CDD1CEE1CFE
:1016D000FF1CE8CFD701C601880F991FAA1FBB1FA7
:1016E0006C017D016894C0F84E5F5F4F2C5F3F4FE7
:1016F0004534510509F053CF9F0126573F4FD9017B
:101700002D913C912C5031092B30310508F063CFDD
:1017100030924E0120924D01C0924901D0924A016F
:10172000E0924B01F0924C0188E090E042CACC0C70
:10173000DD1CEE1CFF1CD8CF220F331F2160029648
:101740000C5F1F4F63CF220F331FF9CF8091F6013B
:10175000803279F5828193810697069750F58481CE
:1017600095810997099728F59F012A5F3F4FBF018F
:10177000625C7F4FC12CD12C7601D9014D915C91D7
:101780001197465051094630510598F412964D91E3
:101790005C911397495151094331510508F489C0AF
:1017A00012964D915C91495051094930510508F408
:1017B000A1C0809151019091520198878F83069723
:1017C0000CF4A3CDDF011296BE83AD8395ECC92E38
:1017D0009DE9D92E9CE1E92E91E8F92E03E010E075
:1017E000ED81FE8164817581A080B18090E080E010
:1017F0000E94990D69877A878B879C87B50190E055
:1018000080E00E94990D4B015C012DEC3CEC4CE416
:101810005FE30E944B0E9B01AC0169857A858B8545
:101820009C850E94EC0CF0E0E0E087FD16C02DECFA
:101830003CEC4CE45FE369857A858B859C850E944E
:101840004B0E9B01AC01C501B4010E94EC0CE2E01F
:10185000F0E087FD02C0E1E0F0E0A701960163E956
:1018600071E080E091E00E94B80E6F01FF0FEE087A
:10187000FF08C626D726E826F9260F5F1F4F8D8161
:101880009E8102969E838D83AF81B8850A171B07C0
:1018900009F0A6CFC0924901D0924A01E0924B01D3
:1018A000F0924C0130924E0120924D01EFEFFFEF8C
:1018B000BBCCD701C601880F991FAA1FBB1F6C01A3
:1018C0007D016894C0F82C5F3F4F6217730709F0E1
:1018D00054CFEEE0F0E0F0934E01E0934D01C09262
:1018E0004901D0924A01E0924B01F0924C018FE005
:1018F00090E05FC9CC0CDD1CEE1CFF1CE4CF5058FF
:10190000BB27AA270E94970C0C94110E0E94030E6D
:1019100038F00E940A0E20F039F49F3F19F426F4A3
:101920000C94000E0EF4E095E7FB0C94FA0DE92FF1
:101930000E94220E58F3BA176207730784079507AF
:1019400020F079F4A6F50C94440E0EF4E0950B2EDD
:10195000BA2FA02D0B01B90190010C01CA01A00101
:101960001124FF27591B99F0593F50F4503E68F15C
:101970001A16F040A22F232F342F4427585FF3CF9D
:10198000469537952795A795F0405395C9F77EF46E
:101990001F16BA0B620B730B840BBAF09150A1F0B7
:1019A000FF0FBB1F661F771F881FC2F70EC0BA0F3D
:1019B000621F731F841F48F4879577956795B795C5
:1019C000F7959E3F08F0B0CF9395880F08F09927C0
:1019D000EE0F9795879508950E94D60D08F481E043
:1019E00008950E94050D0C94110E0E940A0E58F0E5
:1019F0000E94030E40F029F45F3F29F00C94FA0D89
:101A000051110C94450E0C94000E0E94220E68F3A6
:101A10009923B1F3552391F3951B550BBB27AA27A7
:101A200062177307840738F09F5F5F4F220F331FE1
:101A3000441FAA1FA9F335D00E2E3AF0E0E832D0A9
:101A400091505040E695001CCAF72BD0FE2F29D0AC
:101A5000660F771F881FBB1F261737074807AB077E
:101A6000B0E809F0BB0B802DBF01FF2793585F4FF3
:101A70003AF09E3F510578F00C94FA0D0C94450E07
:101A80005F3FE4F3983ED4F3869577956795B795D5
:101A9000F7959F5FC9F7880F911D9695879597F9E0
:101AA0000895E1E0660F771F881FBB1F6217730759
:101AB0008407BA0720F0621B730B840BBA0BEE1F6E
:101AC00088F7E09508950E946A0D6894B1110C940E
:101AD000450E08950E942A0E88F09F5798F0B92F5E
:101AE0009927B751B0F0E1F0660F771F881F991F53
:101AF0001AF0BA95C9F714C0B13091F00E94440EA3
:101B0000B1E008950C94440E672F782F8827B85FB2
:101B100039F0B93FCCF3869577956795B395D9F7AA
:101B20003EF490958095709561957F4F8F4F9F4FB4
:101B30000895E89409C097FB3EF4909580957095C0
:101B400061957F4F8F4F9F4F9923A9F0F92F96E909
:101B5000BB279395F695879577956795B795F1117E
:101B6000F8CFFAF4BB0F11F460FF1BC06F5F7F4F1B
:101B70008F4F9F4F16C0882311F096E911C077232D
:101B800021F09EE8872F762F05C0662371F096E836
:101B9000862F70E060E02AF09A95660F771F881F05
:101BA000DAF7880F9695879597F90895990F0008A9
:101BB000550FAA0BE0E8FEEF16161706E807F9071F
:101BC000C0F012161306E407F50798F0621B730BBA
:101BD000840B950B39F40A2661F0232B242B252B3B
:101BE00021F408950A2609F4A140A6958FEF811DDE
:101BF000811D089597F99F6780E870E060E008957F
:101C00009FEF80EC089500240A9416161706180614
:101C10000906089500240A941216130614060506F0
:101C20000895092E0394000C11F4882352F0BB0F81
:101C300040F4BF2B11F460FF04C06F5F7F4F8F4FE4
:101C40009F4F089557FD9058440F551F59F05F3F1F
:101C500071F04795880F97FB991F61F09F3F79F0CE
:101C600087950895121613061406551FF2CF469550
:101C7000F1DF08C0161617061806991FF1CF8695D2
:101C80007105610508940895E894BB2766277727B6
:101C9000CB0197F908950E945E0E0C94110E0E94DC
:101CA000030E38F00E940A0E20F0952311F00C94D8
:101CB000FA0D0C94000E11240C94450E0E94220E75
:101CC00070F3959FC1F3950F50E0551F629FF0018F
:101CD000729FBB27F00DB11D639FAA27F00DB11DA8
:101CE000AA1F649F6627B00DA11D661F829F222731
:101CF000B00DA11D621F739FB00DA11D621F839FB8
:101D0000A00D611D221F749F3327A00D611D231F8D
:101D1000849F600D211D822F762F6A2F11249F57DB
:101D200050409AF0F1F088234AF0EE0FFF1FBB1FDE
:101D3000661F771F881F91505040A9F79E3F51059D
:101D400080F00C94FA0D0C94450E5F3FE4F3983E3E
:101D5000D4F3869577956795B795F795E7959F5F47
:101D6000C1F7FE2B880F911D9695879597F90895D9
:101D7000DB018F939F930E94EA0EBF91AF91A29FC8
:101D8000800D911DA39F900DB29F900D1124089579
:101D9000A1E21A2EAA1BBB1BFD010DC0AA1FBB1F6F
:101DA000EE1FFF1FA217B307E407F50720F0A21BE1
:101DB000B30BE40BF50B661F771F881F991F1A944E
:101DC00069F760957095809590959B01AC01BD0178
:101DD000CF0108950E94310FA59F900DB49F900DE3
:101DE000A49F800D911D11240895002E083090F0BD
:101DF000982F872F762F652F542F432F322F22278E
:101E00000850F4CF220F331F441F551F661F771F42
:101E1000881F991F0A95B2F7002D089597FD109419
:101E2000002E083098F00850232F342F452F562FBE
:101E3000672F782F892F912DF4CF1594979587953B
:101E40007795679557954795379527950A95AAF7FA
:101E50001124002D0895EE0FFF1F0590F491E02D41
:101E60000994A29FB001B39FC001A39F700D811D73
:101E70001124911DB29F700D811D1124911D089593
:041E8000F894FFCF04
:101E8400000000002C018C00B9007901EA00C800B0
:101E9400DC00554E4F2069732072656164792121FD
:101EA40021000D0A006465636F64655F7479706571
:0C1EB4003D003B200076616C75653D0030
:00000001FF
